{
  "_format": "hh3-artifact-1",
  "contractName": "NPCRegistry",
  "sourceName": "contracts/NPCRegistry.sol",
  "abi": [
    {
      "inputs": [
        {
          "internalType": "address",
          "name": "initialOwner",
          "type": "address"
        }
      ],
      "stateMutability": "nonpayable",
      "type": "constructor"
    },
    {
      "inputs": [
        {
          "internalType": "address",
          "name": "owner",
          "type": "address"
        }
      ],
      "name": "OwnableInvalidOwner",
      "type": "error"
    },
    {
      "inputs": [
        {
          "internalType": "address",
          "name": "account",
          "type": "address"
        }
      ],
      "name": "OwnableUnauthorizedAccount",
      "type": "error"
    },
    {
      "anonymous": false,
      "inputs": [
        {
          "indexed": true,
          "internalType": "uint256",
          "name": "npcId",
          "type": "uint256"
        },
        {
          "indexed": true,
          "internalType": "address",
          "name": "owner",
          "type": "address"
        },
        {
          "indexed": false,
          "internalType": "address",
          "name": "controller",
          "type": "address"
        }
      ],
      "name": "NPCRegistered",
      "type": "event"
    },
    {
      "anonymous": false,
      "inputs": [
        {
          "indexed": true,
          "internalType": "uint256",
          "name": "npcId",
          "type": "uint256"
        }
      ],
      "name": "NPCUpdated",
      "type": "event"
    },
    {
      "anonymous": false,
      "inputs": [
        {
          "indexed": true,
          "internalType": "address",
          "name": "previousOwner",
          "type": "address"
        },
        {
          "indexed": true,
          "internalType": "address",
          "name": "newOwner",
          "type": "address"
        }
      ],
      "name": "OwnershipTransferred",
      "type": "event"
    },
    {
      "inputs": [
        {
          "internalType": "uint256",
          "name": "npcId",
          "type": "uint256"
        }
      ],
      "name": "getNPC",
      "outputs": [
        {
          "components": [
            {
              "internalType": "uint256",
              "name": "id",
              "type": "uint256"
            },
            {
              "internalType": "address",
              "name": "owner",
              "type": "address"
            },
            {
              "internalType": "address",
              "name": "controller",
              "type": "address"
            },
            {
              "internalType": "string",
              "name": "metadataUri",
              "type": "string"
            }
          ],
          "internalType": "struct NPCRegistry.NPC",
          "name": "",
          "type": "tuple"
        }
      ],
      "stateMutability": "view",
      "type": "function"
    },
    {
      "inputs": [],
      "name": "owner",
      "outputs": [
        {
          "internalType": "address",
          "name": "",
          "type": "address"
        }
      ],
      "stateMutability": "view",
      "type": "function"
    },
    {
      "inputs": [
        {
          "internalType": "address",
          "name": "owner",
          "type": "address"
        },
        {
          "internalType": "address",
          "name": "controller",
          "type": "address"
        },
        {
          "internalType": "string",
          "name": "metadataUri",
          "type": "string"
        }
      ],
      "name": "registerNPC",
      "outputs": [
        {
          "internalType": "uint256",
          "name": "",
          "type": "uint256"
        }
      ],
      "stateMutability": "nonpayable",
      "type": "function"
    },
    {
      "inputs": [],
      "name": "renounceOwnership",
      "outputs": [],
      "stateMutability": "nonpayable",
      "type": "function"
    },
    {
      "inputs": [
        {
          "internalType": "address",
          "name": "newOwner",
          "type": "address"
        }
      ],
      "name": "transferOwnership",
      "outputs": [],
      "stateMutability": "nonpayable",
      "type": "function"
    },
    {
      "inputs": [
        {
          "internalType": "uint256",
          "name": "npcId",
          "type": "uint256"
        },
        {
          "internalType": "address",
          "name": "newController",
          "type": "address"
        }
      ],
      "name": "updateNPCController",
      "outputs": [],
      "stateMutability": "nonpayable",
      "type": "function"
    },
    {
      "inputs": [
        {
          "internalType": "uint256",
          "name": "npcId",
          "type": "uint256"
        },
        {
          "internalType": "string",
          "name": "newMetadataUri",
          "type": "string"
        }
      ],
      "name": "updateNPCMetadata",
      "outputs": [],
      "stateMutability": "nonpayable",
      "type": "function"
    }
  ],
  "bytecode": "0x6080604052348015600e575f5ffd5b50604051610ada380380610ada833981016040819052602b9160b4565b806001600160a01b038116605857604051631e4fbdf760e01b81525f600482015260240160405180910390fd5b605f816065565b505060df565b5f80546001600160a01b038381166001600160a01b0319831681178455604051919092169283917f8be0079c531659141344cd1fd0a4f28419497f9722a3daafe3b4186f6b6457e09190a35050565b5f6020828403121560c3575f5ffd5b81516001600160a01b038116811460d8575f5ffd5b9392505050565b6109ee806100ec5f395ff3fe608060405234801561000f575f5ffd5b506004361061007a575f3560e01c8063aafb710811610058578063aafb7108146100ba578063c555db40146100da578063ed56f9e1146100ed578063f2fde38b1461010e575f5ffd5b8063715018a61461007e5780638da5cb5b1461008857806394f2818d146100a7575b5f5ffd5b610086610121565b005b5f546040516001600160a01b0390911681526020015b60405180910390f35b6100866100b53660046105d0565b610134565b6100cd6100c83660046105fa565b610205565b60405161009e9190610611565b6100866100e83660046106c2565b610308565b6101006100fb36600461070a565b6103cb565b60405190815260200161009e565b61008661011c366004610767565b6104fd565b61012961053a565b6101325f610566565b565b5f82815260016020819052604090912001546001600160a01b03163314806101745750336101695f546001600160a01b031690565b6001600160a01b0316145b6101b15760405162461bcd60e51b81526020600482015260096024820152682737ba1037bbb732b960b91b60448201526064015b60405180910390fd5b5f8281526001602052604080822060020180546001600160a01b0319166001600160a01b0385161790555183917f5e769b2090df96b8e95bbc9e5e5501d5248c158bcfee4b6a615a0f2ed1ddbdea91a25050565b604080516080810182525f80825260208201819052918101919091526060808201525f82815260016020818152604092839020835160808101855281548152928101546001600160a01b039081169284019290925260028101549091169282019290925260038201805491929160608401919061028190610787565b80601f01602080910402602001604051908101604052809291908181526020018280546102ad90610787565b80156102f85780601f106102cf576101008083540402835291602001916102f8565b820191905f5260205f20905b8154815290600101906020018083116102db57829003601f168201915b5050505050815250509050919050565b5f83815260016020819052604090912001546001600160a01b031633148061034857503361033d5f546001600160a01b031690565b6001600160a01b0316145b6103805760405162461bcd60e51b81526020600482015260096024820152682737ba1037bbb732b960b91b60448201526064016101a8565b5f83815260016020526040902060030161039b82848361081f565b5060405183907f5e769b2090df96b8e95bbc9e5e5501d5248c158bcfee4b6a615a0f2ed1ddbdea905f90a2505050565b600280545f91829190826103de836108d9565b9190505590506040518060800160405280828152602001876001600160a01b03168152602001866001600160a01b0316815260200185858080601f0160208091040260200160405190810160405280939291908181526020018383808284375f92018290525093909452505083815260016020818152604092839020855181559085015191810180546001600160a01b039384166001600160a01b03199182161790915592850151600282018054919093169316929092179055606083015190915060038201906104af90826108fd565b50506040516001600160a01b0387811682528816915082907fec5017ec4236b420eb2ae3479acbaa3819580da775daf23d2a8d87000706a95a9060200160405180910390a395945050505050565b61050561053a565b6001600160a01b03811661052e57604051631e4fbdf760e01b81525f60048201526024016101a8565b61053781610566565b50565b5f546001600160a01b031633146101325760405163118cdaa760e01b81523360048201526024016101a8565b5f80546001600160a01b038381166001600160a01b0319831681178455604051919092169283917f8be0079c531659141344cd1fd0a4f28419497f9722a3daafe3b4186f6b6457e09190a35050565b80356001600160a01b03811681146105cb575f5ffd5b919050565b5f5f604083850312156105e1575f5ffd5b823591506105f1602084016105b5565b90509250929050565b5f6020828403121561060a575f5ffd5b5035919050565b602081528151602082015260018060a01b03602083015116604082015260018060a01b0360408301511660608201525f606083015160808084015280518060a0850152806020830160c086015e5f60c0828601015260c0601f19601f8301168501019250505092915050565b5f5f83601f84011261068d575f5ffd5b50813567ffffffffffffffff8111156106a4575f5ffd5b6020830191508360208285010111156106bb575f5ffd5b9250929050565b5f5f5f604084860312156106d4575f5ffd5b83359250602084013567ffffffffffffffff8111156106f1575f5ffd5b6106fd8682870161067d565b9497909650939450505050565b5f5f5f5f6060858703121561071d575f5ffd5b610726856105b5565b9350610734602086016105b5565b9250604085013567ffffffffffffffff81111561074f575f5ffd5b61075b8782880161067d565b95989497509550505050565b5f60208284031215610777575f5ffd5b610780826105b5565b9392505050565b600181811c9082168061079b57607f821691505b6020821081036107b957634e487b7160e01b5f52602260045260245ffd5b50919050565b634e487b7160e01b5f52604160045260245ffd5b601f82111561081a57805f5260205f20601f840160051c810160208510156107f85750805b601f840160051c820191505b81811015610817575f8155600101610804565b50505b505050565b67ffffffffffffffff831115610837576108376107bf565b61084b836108458354610787565b836107d3565b5f601f84116001811461087c575f85156108655750838201355b5f19600387901b1c1916600186901b178355610817565b5f83815260208120601f198716915b828110156108ab578685013582556020948501946001909201910161088b565b50868210156108c7575f1960f88860031b161c19848701351681555b505060018560011b0183555050505050565b5f600182016108f657634e487b7160e01b5f52601160045260245ffd5b5060010190565b815167ffffffffffffffff811115610917576109176107bf565b61092b816109258454610787565b846107d3565b6020601f82116001811461095d575f83156109465750848201515b5f19600385901b1c1916600184901b178455610817565b5f84815260208120601f198516915b8281101561098c578785015182556020948501946001909201910161096c565b50848210156109a957868401515f19600387901b60f8161c191681555b50505050600190811b0190555056fea2646970667358221220e2de066fa6065135baa571a7d694605ed08a0f628d180a02c7775125a611931964736f6c634300081c0033",
  "linkReferences": {},
  "deployedLinkReferences": {},
  "immutableReferences": {},
  "inputSourceName": "project/contracts/NPCRegistry.sol",
  "buildInfoId": "solc-0_8_28-51b1bc8d6879cd25d701319142395bb1619b7007"
}