{
  "_format": "hh3-artifact-1",
  "contractName": "Quest",
  "sourceName": "contracts/Quest.sol",
  "abi": [
    {
      "inputs": [
        {
          "internalType": "address",
          "name": "_behaviorController",
          "type": "address"
        }
      ],
      "stateMutability": "nonpayable",
      "type": "constructor"
    },
    {
      "inputs": [],
      "name": "ReentrancyGuardReentrantCall",
      "type": "error"
    },
    {
      "anonymous": false,
      "inputs": [
        {
          "indexed": true,
          "internalType": "uint256",
          "name": "questId",
          "type": "uint256"
        },
        {
          "indexed": true,
          "internalType": "address",
          "name": "participant",
          "type": "address"
        }
      ],
      "name": "QuestAccepted",
      "type": "event"
    },
    {
      "anonymous": false,
      "inputs": [
        {
          "indexed": true,
          "internalType": "uint256",
          "name": "questId",
          "type": "uint256"
        },
        {
          "indexed": true,
          "internalType": "address",
          "name": "participant",
          "type": "address"
        }
      ],
      "name": "QuestCompleted",
      "type": "event"
    },
    {
      "anonymous": false,
      "inputs": [
        {
          "indexed": true,
          "internalType": "uint256",
          "name": "questId",
          "type": "uint256"
        },
        {
          "indexed": true,
          "internalType": "address",
          "name": "creator",
          "type": "address"
        },
        {
          "indexed": false,
          "internalType": "address",
          "name": "token",
          "type": "address"
        },
        {
          "indexed": false,
          "internalType": "uint256",
          "name": "reward",
          "type": "uint256"
        }
      ],
      "name": "QuestCreated",
      "type": "event"
    },
    {
      "inputs": [
        {
          "internalType": "uint256",
          "name": "questId",
          "type": "uint256"
        }
      ],
      "name": "acceptQuest",
      "outputs": [],
      "stateMutability": "nonpayable",
      "type": "function"
    },
    {
      "inputs": [],
      "name": "behaviorController",
      "outputs": [
        {
          "internalType": "contract BehaviorController",
          "name": "",
          "type": "address"
        }
      ],
      "stateMutability": "view",
      "type": "function"
    },
    {
      "inputs": [
        {
          "internalType": "uint256",
          "name": "questId",
          "type": "uint256"
        }
      ],
      "name": "completeQuest",
      "outputs": [],
      "stateMutability": "nonpayable",
      "type": "function"
    },
    {
      "inputs": [
        {
          "internalType": "address",
          "name": "tokenAddress",
          "type": "address"
        },
        {
          "internalType": "uint256",
          "name": "reward",
          "type": "uint256"
        },
        {
          "internalType": "string",
          "name": "metadataUri",
          "type": "string"
        }
      ],
      "name": "createQuest",
      "outputs": [
        {
          "internalType": "uint256",
          "name": "",
          "type": "uint256"
        }
      ],
      "stateMutability": "nonpayable",
      "type": "function"
    },
    {
      "inputs": [
        {
          "internalType": "uint256",
          "name": "questId",
          "type": "uint256"
        }
      ],
      "name": "getQuest",
      "outputs": [
        {
          "components": [
            {
              "internalType": "address",
              "name": "creator",
              "type": "address"
            },
            {
              "internalType": "address",
              "name": "participant",
              "type": "address"
            },
            {
              "internalType": "contract IERC20",
              "name": "token",
              "type": "address"
            },
            {
              "internalType": "uint256",
              "name": "reward",
              "type": "uint256"
            },
            {
              "internalType": "enum Quest.QuestState",
              "name": "state",
              "type": "uint8"
            },
            {
              "internalType": "uint256",
              "name": "createdAt",
              "type": "uint256"
            },
            {
              "internalType": "uint256",
              "name": "completedAt",
              "type": "uint256"
            },
            {
              "internalType": "string",
              "name": "metadataUri",
              "type": "string"
            }
          ],
          "internalType": "struct Quest.QuestData",
          "name": "",
          "type": "tuple"
        }
      ],
      "stateMutability": "view",
      "type": "function"
    }
  ],
  "bytecode": "0x6080604052348015600e575f5ffd5b50604051610e06380380610e06833981016040819052602b916053565b60015f81905580546001600160a01b0319166001600160a01b0392909216919091179055607e565b5f602082840312156062575f5ffd5b81516001600160a01b03811681146077575f5ffd5b9392505050565b610d7b8061008b5f395ff3fe608060405234801561000f575f5ffd5b5060043610610054575f3560e01c8062ee62f614610058578063139f399a1461008857806349f86f341461009d578063528be0a9146100bd578063a2db80a7146100d0575b5f5ffd5b60015461006b906001600160a01b031681565b6040516001600160a01b0390911681526020015b60405180910390f35b61009b6100963660046109db565b6100f1565b005b6100b06100ab3660046109db565b6101c2565b60405161007f9190610a54565b61009b6100cb3660046109db565b610336565b6100e36100de366004610ade565b61060d565b60405190815260200161007f565b6100f96109b3565b5f81815260026020526040812090600482015460ff166002811115610120576101206109f2565b146101635760405162461bcd60e51b815260206004820152600e60248201526d28bab2b9ba103737ba1037b832b760911b60448201526064015b60405180910390fd5b600180820180546001600160a01b0319163317905560048201805460ff191682800217905550604051339083907f7d422f3e3149564cf96cfeab23ae433b6b1d7259c2873096244209f9b40befee905f90a3506101bf60015f55565b50565b61020760408051610100810182525f808252602082018190529181018290526060810182905290608082019081526020015f81526020015f8152602001606081525090565b5f8281526002602081815260409283902083516101008101855281546001600160a01b03908116825260018301548116938201939093528184015490921693820193909352600383015460608201526004830154909291608084019160ff1690811115610276576102766109f2565b6002811115610287576102876109f2565b815260200160058201548152602001600682015481526020016007820180546102af90610b6e565b80601f01602080910402602001604051908101604052809291908181526020018280546102db90610b6e565b80156103265780601f106102fd57610100808354040283529160200191610326565b820191905f5260205f20905b81548152906001019060200180831161030957829003601f168201915b5050505050815250509050919050565b61033e6109b3565b60015460405163ab15ce8360e01b81526001600160a01b039091169063ab15ce839061037790309063528be0a960e01b90600401610ba6565b602060405180830381865afa158015610392573d5f5f3e3d5ffd5b505050506040513d601f19601f820116820180604052508101906103b69190610bc9565b6104115760405162461bcd60e51b815260206004820152602660248201527f4265686176696f72436f6e74726f6c6c65723a20416374696f6e206e6f7420616044820152651b1b1bddd95960d21b606482015260840161015a565b600154604051636e878c1560e01b81526001600160a01b0390911690636e878c159061044a90309063528be0a960e01b90600401610ba6565b5f604051808303815f87803b158015610461575f5ffd5b505af1158015610473573d5f5f3e3d5ffd5b5050505f82815260026020526040902090506001600482015460ff1660028111156104a0576104a06109f2565b146104e55760405162461bcd60e51b81526020600482015260156024820152745175657374206e6f7420696e2070726f677265737360581b604482015260640161015a565b60018101546001600160a01b031633146105325760405162461bcd60e51b815260206004820152600e60248201526d139bdd081e5bdd5c881c5d595cdd60921b604482015260640161015a565b6004818101805460ff191660029081179091554260068401558201546001830154600384015460405163a9059cbb60e01b81526001600160a01b03928316948101949094526024840152169063a9059cbb906044016020604051808303815f875af11580156105a3573d5f5f3e3d5ffd5b505050506040513d601f19601f820116820180604052508101906105c79190610bc9565b5060018101546040516001600160a01b039091169083907f1f830b1eb1d06c99fa9684f55e907da9251648000c05474005094c53869dbf60905f90a3506101bf60015f55565b5f6106166109b3565b6040516370a0823160e01b8152336004820152859085906001600160a01b038316906370a0823190602401602060405180830381865afa15801561065c573d5f5f3e3d5ffd5b505050506040513d601f19601f820116820180604052508101906106809190610bef565b10156106c55760405162461bcd60e51b8152602060048201526014602482015273496e73756666696369656e742062616c616e636560601b604482015260640161015a565b604051636eb1769f60e11b815233600482015230602482015285906001600160a01b0383169063dd62ed3e90604401602060405180830381865afa15801561070f573d5f5f3e3d5ffd5b505050506040513d601f19601f820116820180604052508101906107339190610bef565b101561077a5760405162461bcd60e51b8152602060048201526016602482015275496e73756666696369656e7420616c6c6f77616e636560501b604482015260640161015a565b6040516323b872dd60e01b8152336004820152306024820152604481018690526001600160a01b038216906323b872dd906064016020604051808303815f875af11580156107ca573d5f5f3e3d5ffd5b505050506040513d601f19601f820116820180604052508101906107ee9190610bc9565b50600380545f91826107ff83610c06565b919050559050604051806101000160405280336001600160a01b031681526020015f6001600160a01b03168152602001836001600160a01b031681526020018781526020015f6002811115610856576108566109f2565b81526020014281526020015f815260200186868080601f0160208091040260200160405190810160405280939291908181526020018383808284375f92018290525093909452505083815260026020818152604092839020855181546001600160a01b03199081166001600160a01b0392831617835592870151600180840180548616928416929092179091559487015182850180549094169116179091556060850151600382015560808501516004820180549295509093909260ff19909216918490811115610929576109296109f2565b021790555060a0820151600582015560c0820151600682015560e082015160078201906109569082610c8a565b5050604080516001600160a01b038a1681526020810189905233925083917f35f28a68adb084908976feaceed7395689df1e1ff310a637f23100ee1b82a700910160405180910390a39150506109ab60015f55565b949350505050565b60025f54036109d557604051633ee5aeb560e01b815260040160405180910390fd5b60025f55565b5f602082840312156109eb575f5ffd5b5035919050565b634e487b7160e01b5f52602160045260245ffd5b60038110610a2257634e487b7160e01b5f52602160045260245ffd5b9052565b5f81518084528060208401602086015e5f602082860101526020601f19601f83011685010191505092915050565b602080825282516001600160a01b039081168383015290830151166040808301919091528201515f90610a9260608401826001600160a01b03169052565b50606083015160808301526080830151610aaf60a0840182610a06565b5060a083015160c083015260c083015160e083015260e0830151610100808401526109ab610120840182610a26565b5f5f5f5f60608587031215610af1575f5ffd5b84356001600160a01b0381168114610b07575f5ffd5b935060208501359250604085013567ffffffffffffffff811115610b29575f5ffd5b8501601f81018713610b39575f5ffd5b803567ffffffffffffffff811115610b4f575f5ffd5b876020828401011115610b60575f5ffd5b949793965060200194505050565b600181811c90821680610b8257607f821691505b602082108103610ba057634e487b7160e01b5f52602260045260245ffd5b50919050565b6001600160a01b039290921682526001600160e01b031916602082015260400190565b5f60208284031215610bd9575f5ffd5b81518015158114610be8575f5ffd5b9392505050565b5f60208284031215610bff575f5ffd5b5051919050565b5f60018201610c2357634e487b7160e01b5f52601160045260245ffd5b5060010190565b634e487b7160e01b5f52604160045260245ffd5b601f821115610c8557805f5260205f20601f840160051c81016020851015610c635750805b601f840160051c820191505b81811015610c82575f8155600101610c6f565b50505b505050565b815167ffffffffffffffff811115610ca457610ca4610c2a565b610cb881610cb28454610b6e565b84610c3e565b6020601f821160018114610cea575f8315610cd35750848201515b5f19600385901b1c1916600184901b178455610c82565b5f84815260208120601f198516915b82811015610d195787850151825560209485019460019092019101610cf9565b5084821015610d3657868401515f19600387901b60f8161c191681555b50505050600190811b0190555056fea26469706673582212200ee19af01d4526f0749fa292322fbf20256679cfc8cc983308651bbedaf028c564736f6c634300081c0033",
  "linkReferences": {},
  "deployedLinkReferences": {},
  "immutableReferences": {},
  "inputSourceName": "project/contracts/Quest.sol",
  "buildInfoId": "solc-0_8_28-98994eae168b458adf87cb25774bf072f1e9c92a"
}