{
  "_format": "hh3-artifact-1",
  "contractName": "GameActionAdapter",
  "sourceName": "contracts/GameActionAdapter.sol",
  "abi": [
    {
      "inputs": [
        {
          "internalType": "address",
          "name": "_behaviorController",
          "type": "address"
        },
        {
          "internalType": "address",
          "name": "initialOwner",
          "type": "address"
        }
      ],
      "stateMutability": "nonpayable",
      "type": "constructor"
    },
    {
      "inputs": [
        {
          "internalType": "address",
          "name": "owner",
          "type": "address"
        }
      ],
      "name": "OwnableInvalidOwner",
      "type": "error"
    },
    {
      "inputs": [
        {
          "internalType": "address",
          "name": "account",
          "type": "address"
        }
      ],
      "name": "OwnableUnauthorizedAccount",
      "type": "error"
    },
    {
      "anonymous": false,
      "inputs": [
        {
          "indexed": true,
          "internalType": "address",
          "name": "actor",
          "type": "address"
        },
        {
          "indexed": false,
          "internalType": "string",
          "name": "actionType",
          "type": "string"
        },
        {
          "indexed": false,
          "internalType": "bytes",
          "name": "params",
          "type": "bytes"
        },
        {
          "indexed": false,
          "internalType": "bool",
          "name": "success",
          "type": "bool"
        },
        {
          "indexed": false,
          "internalType": "bytes",
          "name": "result",
          "type": "bytes"
        }
      ],
      "name": "ActionExecuted",
      "type": "event"
    },
    {
      "anonymous": false,
      "inputs": [
        {
          "indexed": true,
          "internalType": "address",
          "name": "actor",
          "type": "address"
        },
        {
          "indexed": false,
          "internalType": "string",
          "name": "actionType",
          "type": "string"
        },
        {
          "indexed": false,
          "internalType": "bool",
          "name": "success",
          "type": "bool"
        }
      ],
      "name": "ActionExecutedViaAdapter",
      "type": "event"
    },
    {
      "anonymous": false,
      "inputs": [
        {
          "indexed": false,
          "internalType": "string",
          "name": "actionType",
          "type": "string"
        },
        {
          "indexed": false,
          "internalType": "address",
          "name": "targetContract",
          "type": "address"
        },
        {
          "indexed": false,
          "internalType": "bytes4",
          "name": "functionSelector",
          "type": "bytes4"
        }
      ],
      "name": "ActionMappingSet",
      "type": "event"
    },
    {
      "anonymous": false,
      "inputs": [
        {
          "indexed": true,
          "internalType": "address",
          "name": "previousOwner",
          "type": "address"
        },
        {
          "indexed": true,
          "internalType": "address",
          "name": "newOwner",
          "type": "address"
        }
      ],
      "name": "OwnershipTransferred",
      "type": "event"
    },
    {
      "inputs": [
        {
          "internalType": "string",
          "name": "",
          "type": "string"
        }
      ],
      "name": "actionMappings",
      "outputs": [
        {
          "internalType": "address",
          "name": "targetContract",
          "type": "address"
        },
        {
          "internalType": "bytes4",
          "name": "functionSelector",
          "type": "bytes4"
        },
        {
          "internalType": "bool",
          "name": "requiresApproval",
          "type": "bool"
        },
        {
          "internalType": "uint256",
          "name": "gasCost",
          "type": "uint256"
        }
      ],
      "stateMutability": "view",
      "type": "function"
    },
    {
      "inputs": [
        {
          "internalType": "address",
          "name": "caller",
          "type": "address"
        }
      ],
      "name": "authorizeAddress",
      "outputs": [],
      "stateMutability": "nonpayable",
      "type": "function"
    },
    {
      "inputs": [
        {
          "internalType": "address",
          "name": "",
          "type": "address"
        }
      ],
      "name": "authorizedCallers",
      "outputs": [
        {
          "internalType": "bool",
          "name": "",
          "type": "bool"
        }
      ],
      "stateMutability": "view",
      "type": "function"
    },
    {
      "inputs": [],
      "name": "behaviorController",
      "outputs": [
        {
          "internalType": "contract BehaviorController",
          "name": "",
          "type": "address"
        }
      ],
      "stateMutability": "view",
      "type": "function"
    },
    {
      "inputs": [
        {
          "internalType": "address",
          "name": "target",
          "type": "address"
        },
        {
          "internalType": "string",
          "name": "actionType",
          "type": "string"
        },
        {
          "internalType": "bytes",
          "name": "params",
          "type": "bytes"
        },
        {
          "internalType": "address",
          "name": "actor",
          "type": "address"
        }
      ],
      "name": "callTargetValidation",
      "outputs": [
        {
          "internalType": "bool",
          "name": "valid",
          "type": "bool"
        },
        {
          "internalType": "string",
          "name": "reason",
          "type": "string"
        }
      ],
      "stateMutability": "view",
      "type": "function"
    },
    {
      "inputs": [
        {
          "internalType": "string",
          "name": "actionType",
          "type": "string"
        },
        {
          "internalType": "bytes",
          "name": "params",
          "type": "bytes"
        }
      ],
      "name": "executeAction",
      "outputs": [
        {
          "internalType": "bool",
          "name": "success",
          "type": "bool"
        },
        {
          "internalType": "bytes",
          "name": "result",
          "type": "bytes"
        }
      ],
      "stateMutability": "nonpayable",
      "type": "function"
    },
    {
      "inputs": [
        {
          "internalType": "string",
          "name": "actionType",
          "type": "string"
        }
      ],
      "name": "getActionMapping",
      "outputs": [
        {
          "components": [
            {
              "internalType": "address",
              "name": "targetContract",
              "type": "address"
            },
            {
              "internalType": "bytes4",
              "name": "functionSelector",
              "type": "bytes4"
            },
            {
              "internalType": "bool",
              "name": "requiresApproval",
              "type": "bool"
            },
            {
              "internalType": "uint256",
              "name": "gasCost",
              "type": "uint256"
            }
          ],
          "internalType": "struct GameActionAdapter.ActionMapping",
          "name": "",
          "type": "tuple"
        }
      ],
      "stateMutability": "view",
      "type": "function"
    },
    {
      "inputs": [
        {
          "internalType": "address",
          "name": "actor",
          "type": "address"
        }
      ],
      "name": "getAvailableActions",
      "outputs": [
        {
          "internalType": "string[]",
          "name": "actions",
          "type": "string[]"
        }
      ],
      "stateMutability": "view",
      "type": "function"
    },
    {
      "inputs": [
        {
          "internalType": "address",
          "name": "actor",
          "type": "address"
        }
      ],
      "name": "getGameState",
      "outputs": [
        {
          "internalType": "bytes",
          "name": "state",
          "type": "bytes"
        }
      ],
      "stateMutability": "view",
      "type": "function"
    },
    {
      "inputs": [],
      "name": "owner",
      "outputs": [
        {
          "internalType": "address",
          "name": "",
          "type": "address"
        }
      ],
      "stateMutability": "view",
      "type": "function"
    },
    {
      "inputs": [],
      "name": "renounceOwnership",
      "outputs": [],
      "stateMutability": "nonpayable",
      "type": "function"
    },
    {
      "inputs": [
        {
          "internalType": "address",
          "name": "caller",
          "type": "address"
        }
      ],
      "name": "revokeAuthorization",
      "outputs": [],
      "stateMutability": "nonpayable",
      "type": "function"
    },
    {
      "inputs": [
        {
          "internalType": "string",
          "name": "actionType",
          "type": "string"
        },
        {
          "internalType": "address",
          "name": "targetContract",
          "type": "address"
        },
        {
          "internalType": "bytes4",
          "name": "functionSelector",
          "type": "bytes4"
        },
        {
          "internalType": "bool",
          "name": "requiresApproval",
          "type": "bool"
        },
        {
          "internalType": "uint256",
          "name": "gasCost",
          "type": "uint256"
        }
      ],
      "name": "setActionMapping",
      "outputs": [],
      "stateMutability": "nonpayable",
      "type": "function"
    },
    {
      "inputs": [
        {
          "internalType": "address",
          "name": "newOwner",
          "type": "address"
        }
      ],
      "name": "transferOwnership",
      "outputs": [],
      "stateMutability": "nonpayable",
      "type": "function"
    },
    {
      "inputs": [
        {
          "internalType": "string",
          "name": "actionType",
          "type": "string"
        },
        {
          "internalType": "bytes",
          "name": "params",
          "type": "bytes"
        },
        {
          "internalType": "address",
          "name": "actor",
          "type": "address"
        }
      ],
      "name": "validateAction",
      "outputs": [
        {
          "internalType": "bool",
          "name": "valid",
          "type": "bool"
        },
        {
          "internalType": "string",
          "name": "reason",
          "type": "string"
        }
      ],
      "stateMutability": "view",
      "type": "function"
    }
  ],
  "bytecode": "0x608060405234801561000f575f5ffd5b506040516116be3803806116be83398101604081905261002e916100f6565b806001600160a01b03811661005c57604051631e4fbdf760e01b81525f600482015260240160405180910390fd5b6100658161008c565b5050600180546001600160a01b0319166001600160a01b0392909216919091179055610127565b5f80546001600160a01b038381166001600160a01b0319831681178455604051919092169283917f8be0079c531659141344cd1fd0a4f28419497f9722a3daafe3b4186f6b6457e09190a35050565b80516001600160a01b03811681146100f1575f5ffd5b919050565b5f5f60408385031215610107575f5ffd5b610110836100db565b915061011e602084016100db565b90509250929050565b61158a806101345f395ff3fe608060405234801561000f575f5ffd5b50600436106100ef575f3560e01c80638da5cb5b11610093578063baf085a411610063578063baf085a4146102c4578063d9d60b52146102d7578063f2fde38b1461031f578063f98a036914610332575f5ffd5b80638da5cb5b14610233578063a0a59d1e14610243578063b0e58c2b1461029e578063b48028e3146102b1575f5ffd5b80634a5db3b5116100ce5780634a5db3b5146101d1578063536fff6c146101e6578063715018a6146102185780638bf23d6714610220575f5ffd5b8062ee62f6146100f35780631a7e8c0d1461012357806333a92e6c14610144575b5f5ffd5b600154610106906001600160a01b031681565b6040516001600160a01b0390911681526020015b60405180910390f35b610136610131366004610e83565b610352565b60405161011a929190610f1b565b610198610152366004610fa7565b8051602081830181018051600282529282019190930120915280546001909101546001600160a01b03821691600160a01b810460e01b91600160c01b90910460ff169084565b604080516001600160a01b0390951685526001600160e01b0319909316602085015290151591830191909152606082015260800161011a565b6101e46101df36600461103b565b6107a1565b005b6102086101f436600461103b565b60036020525f908152604090205460ff1681565b604051901515815260200161011a565b6101e46107cc565b6101e461022e366004611068565b6107df565b5f546001600160a01b0316610106565b6102566102513660046110f2565b6108df565b60405161011a919081516001600160a01b031681526020808301516001600160e01b031916908201526040808301511515908201526060918201519181019190915260800190565b6101366102ac366004611130565b610977565b6101e46102bf36600461103b565b6109fe565b6101366102d23660046111bd565b610a26565b6103126102e536600461103b565b604080516001600160a01b0392909216602083015242828201528051808303820181526060909201905290565b60405161011a919061123b565b6101e461032d36600461103b565b610d54565b61034561034036600461103b565b610d91565b60405161011a919061124d565b335f9081526003602052604081205460609060ff168061037b57505f546001600160a01b031633145b6103bd5760405162461bcd60e51b815260206004820152600e60248201526d139bdd08185d5d1a1bdc9a5e995960921b60448201526064015b60405180910390fd5b5f600287876040516103d09291906112b0565b908152604080516020928190038301812060808201835280546001600160a01b038116808452600160a01b820460e01b6001600160e01b03191695840195909552600160c01b900460ff16151592820192909252600190910154606082015291506104765760405162461bcd60e51b81526020600482015260166024820152751058dd1a5bdb881d1e5c19481b9bdd081b585c1c195960521b60448201526064016103b4565b80604001511561060b576001548151602083015160405163ab15ce8360e01b81526001600160a01b039093169263ab15ce83926104b79290916004016112bf565b602060405180830381865afa1580156104d2573d5f5f3e3d5ffd5b505050506040513d601f19601f820116820180604052508101906104f691906112e2565b6105535760405162461bcd60e51b815260206004820152602860248201527f416374696f6e206e6f7420616c6c6f776564206279204265686176696f72436f604482015267373a3937b63632b960c11b60648201526084016103b4565b600154815160208301516040516362090c2760e11b81526001600160a01b039093169263c412184e9261058a9290916004016112bf565b602060405180830381865afa1580156105a5573d5f5f3e3d5ffd5b505050506040513d601f19601f820116820180604052508101906105c991906112e2565b61060b5760405162461bcd60e51b815260206004820152601360248201527214985d19481b1a5b5a5d08195e18d959591959606a1b60448201526064016103b4565b805f01516001600160a01b031681602001518686604051602001610631939291906112fd565b60408051601f198184030181529082905261064b91611320565b5f604051808303815f865af19150503d805f8114610684576040519150601f19603f3d011682016040523d82523d5f602084013e610689565b606091505b5060408301519194509250801561069d5750825b156107075760015481516020830151604051636e878c1560e01b81526001600160a01b0390931692636e878c15926106d99290916004016112bf565b5f604051808303815f87803b1580156106f0575f5ffd5b505af1158015610702573d5f5f3e3d5ffd5b505050505b336001600160a01b03167f22b073aa019e287a0accb4e4c5bbd3eb79d79249a37a5b1fadb978722a1857738888866040516107449392919061135e565b60405180910390a2336001600160a01b03167fa1e7ac53d8493f85f296bd7a0befc1b5ba01d4c8544b2207467c7b6be226056788888888888860405161078f96959493929190611383565b60405180910390a25094509492505050565b6107a9610dc4565b6001600160a01b03165f908152600360205260409020805460ff19166001179055565b6107d4610dc4565b6107dd5f610df0565b565b6107e7610dc4565b6040518060800160405280856001600160a01b03168152602001846001600160e01b03191681526020018315158152602001828152506002878760405161082f9291906112b0565b9081526040805191829003602090810183208451815492860151938601511515600160c01b0260ff60c01b1960e09590951c600160a01b026001600160c01b03199094166001600160a01b039092169190911792909217929092161781556060909201516001909201919091557f70394c5930a9cbcd5ccbd2dbda692b9ff0d6a5b381dda7bcf166f466291596a6906108cf9088908890889088906113d2565b60405180910390a1505050505050565b604080516080810182525f808252602082018190528183018190526060820152905160029061091190859085906112b0565b908152604080516020928190038301812060808201835280546001600160a01b0381168352600160a01b810460e01b6001600160e01b03191694830194909452600160c01b90930460ff1615159181019190915260019091015460608201529392505050565b5f6060876001600160a01b031663baf085a488888888886040518663ffffffff1660e01b81526004016109ae959493929190611410565b5f60405180830381865afa1580156109c8573d5f5f3e3d5ffd5b505050506040513d5f823e601f3d908101601f191682016040526109ef9190810190611451565b91509150965096945050505050565b610a06610dc4565b6001600160a01b03165f908152600360205260409020805460ff19169055565b5f60605f60028888604051610a3c9291906112b0565b908152604080516020928190038301812060808201835280546001600160a01b038116808452600160a01b820460e01b6001600160e01b03191695840195909552600160c01b900460ff1615159282019290925260019091015460608201529150610ad85750506040805180820190915260168152751058dd1a5bdb881d1e5c19481b9bdd081b585c1c195960521b60208201525f9150610d4a565b6001600160a01b0384165f9081526003602052604090205460ff16158015610b0d57505f546001600160a01b03858116911614155b15610b475750506040805180820190915260148152731058dd1bdc881b9bdd08185d5d1a1bdc9a5e995960621b60208201525f9150610d4a565b806040015115610c9d576001548151602083015160405163ab15ce8360e01b81526001600160a01b039093169263ab15ce8392610b889290916004016112bf565b602060405180830381865afa158015610ba3573d5f5f3e3d5ffd5b505050506040513d601f19601f82011682018060405250810190610bc791906112e2565b610bef575f60405180606001604052806028815260200161152d602891399250925050610d4a565b600154815160208301516040516362090c2760e11b81526001600160a01b039093169263c412184e92610c269290916004016112bf565b602060405180830381865afa158015610c41573d5f5f3e3d5ffd5b505050506040513d601f19601f82011682018060405250810190610c6591906112e2565b610c9d57505060408051808201909152601381527214985d19481b1a5b5a5d08195e18d959591959606a1b60208201525f9150610d4a565b805160405163b0e58c2b60e01b8152309163b0e58c2b91610ccb91908c908c908c908c908c906004016114d9565b5f60405180830381865afa925050508015610d0757506040513d5f823e601f3d908101601f19168201604052610d049190810190611451565b60015b610d3e57505060408051808201909152601181527015985b1a59185d1a5bdb881c185cdcd959607a1b602082015260019150610d4a565b9093509150610d4a9050565b9550959350505050565b610d5c610dc4565b6001600160a01b038116610d8557604051631e4fbdf760e01b81525f60048201526024016103b4565b610d8e81610df0565b50565b604080515f80825260208201909252606091610dbd565b6060815260200190600190039081610da85790505b5092915050565b5f546001600160a01b031633146107dd5760405163118cdaa760e01b81523360048201526024016103b4565b5f80546001600160a01b038381166001600160a01b0319831681178455604051919092169283917f8be0079c531659141344cd1fd0a4f28419497f9722a3daafe3b4186f6b6457e09190a35050565b5f5f83601f840112610e4f575f5ffd5b5081356001600160401b03811115610e65575f5ffd5b602083019150836020828501011115610e7c575f5ffd5b9250929050565b5f5f5f5f60408587031215610e96575f5ffd5b84356001600160401b03811115610eab575f5ffd5b610eb787828801610e3f565b90955093505060208501356001600160401b03811115610ed5575f5ffd5b610ee187828801610e3f565b95989497509550505050565b5f81518084528060208401602086015e5f602082860101526020601f19601f83011685010191505092915050565b8215158152604060208201525f610f356040830184610eed565b949350505050565b634e487b7160e01b5f52604160045260245ffd5b604051601f8201601f191681016001600160401b0381118282101715610f7957610f79610f3d565b604052919050565b5f6001600160401b03821115610f9957610f99610f3d565b50601f01601f191660200190565b5f60208284031215610fb7575f5ffd5b81356001600160401b03811115610fcc575f5ffd5b8201601f81018413610fdc575f5ffd5b8035610fef610fea82610f81565b610f51565b818152856020838501011115611003575f5ffd5b816020840160208301375f91810160200191909152949350505050565b80356001600160a01b0381168114611036575f5ffd5b919050565b5f6020828403121561104b575f5ffd5b61105482611020565b9392505050565b8015158114610d8e575f5ffd5b5f5f5f5f5f5f60a0878903121561107d575f5ffd5b86356001600160401b03811115611092575f5ffd5b61109e89828a01610e3f565b90975095506110b1905060208801611020565b935060408701356001600160e01b0319811681146110cd575f5ffd5b925060608701356110dd8161105b565b80925050608087013590509295509295509295565b5f5f60208385031215611103575f5ffd5b82356001600160401b03811115611118575f5ffd5b61112485828601610e3f565b90969095509350505050565b5f5f5f5f5f5f60808789031215611145575f5ffd5b61114e87611020565b955060208701356001600160401b03811115611168575f5ffd5b61117489828a01610e3f565b90965094505060408701356001600160401b03811115611192575f5ffd5b61119e89828a01610e3f565b90945092506111b1905060608801611020565b90509295509295509295565b5f5f5f5f5f606086880312156111d1575f5ffd5b85356001600160401b038111156111e6575f5ffd5b6111f288828901610e3f565b90965094505060208601356001600160401b03811115611210575f5ffd5b61121c88828901610e3f565b909450925061122f905060408701611020565b90509295509295909350565b602081525f6110546020830184610eed565b5f602082016020835280845180835260408501915060408160051b8601019250602086015f5b828110156112a457603f1987860301845261128f858351610eed565b94506020938401939190910190600101611273565b50929695505050505050565b818382375f9101908152919050565b6001600160a01b039290921682526001600160e01b031916602082015260400190565b5f602082840312156112f2575f5ffd5b81516110548161105b565b6001600160e01b031984168152818360048301375f910160040190815292915050565b5f82518060208501845e5f920191825250919050565b81835281816020850137505f828201602090810191909152601f909101601f19169091010190565b604081525f611371604083018587611336565b90508215156020830152949350505050565b608081525f61139660808301888a611336565b82810360208401526113a9818789611336565b9050841515604084015282810360608401526113c58185610eed565b9998505050505050505050565b606081525f6113e5606083018688611336565b6001600160a01b03949094166020830152506001600160e01b03199190911660409091015292915050565b606081525f611423606083018789611336565b8281036020840152611436818688611336565b91505060018060a01b03831660408301529695505050505050565b5f5f60408385031215611462575f5ffd5b825161146d8161105b565b60208401519092506001600160401b03811115611488575f5ffd5b8301601f81018513611498575f5ffd5b80516114a6610fea82610f81565b8181528660208385010111156114ba575f5ffd5b8160208401602083015e5f602083830101528093505050509250929050565b6001600160a01b03871681526080602082018190525f906114fd9083018789611336565b8281036040840152611510818688611336565b91505060018060a01b038316606083015297965050505050505056fe416374696f6e206e6f7420616c6c6f776564206279204265686176696f72436f6e74726f6c6c6572a26469706673582212209b8030e0a680b60bb7d2fedd8307004fb2ff349b1af8c5b482e09d03cb64652b64736f6c634300081c0033",
  "linkReferences": {},
  "deployedLinkReferences": {},
  "immutableReferences": {},
  "inputSourceName": "project/contracts/GameActionAdapter.sol",
  "buildInfoId": "solc-0_8_28-abb1c3688c61d58976ab96e74885d58e8a913d33"
}