{
  "_format": "hh3-artifact-1",
  "contractName": "Arena",
  "sourceName": "contracts/Arena.sol",
  "abi": [
    {
      "inputs": [
        {
          "internalType": "address",
          "name": "_behaviorController",
          "type": "address"
        }
      ],
      "stateMutability": "nonpayable",
      "type": "constructor"
    },
    {
      "inputs": [],
      "name": "ReentrancyGuardReentrantCall",
      "type": "error"
    },
    {
      "anonymous": false,
      "inputs": [
        {
          "indexed": true,
          "internalType": "uint256",
          "name": "duelId",
          "type": "uint256"
        },
        {
          "indexed": true,
          "internalType": "address",
          "name": "winner",
          "type": "address"
        }
      ],
      "name": "DuelConcluded",
      "type": "event"
    },
    {
      "anonymous": false,
      "inputs": [
        {
          "indexed": true,
          "internalType": "uint256",
          "name": "duelId",
          "type": "uint256"
        },
        {
          "indexed": true,
          "internalType": "address",
          "name": "player1",
          "type": "address"
        },
        {
          "indexed": true,
          "internalType": "address",
          "name": "player2",
          "type": "address"
        },
        {
          "indexed": false,
          "internalType": "address",
          "name": "token",
          "type": "address"
        },
        {
          "indexed": false,
          "internalType": "uint256",
          "name": "wager",
          "type": "uint256"
        }
      ],
      "name": "DuelCreated",
      "type": "event"
    },
    {
      "inputs": [
        {
          "internalType": "uint256",
          "name": "duelId",
          "type": "uint256"
        }
      ],
      "name": "acceptDuel",
      "outputs": [],
      "stateMutability": "nonpayable",
      "type": "function"
    },
    {
      "inputs": [],
      "name": "behaviorController",
      "outputs": [
        {
          "internalType": "contract BehaviorController",
          "name": "",
          "type": "address"
        }
      ],
      "stateMutability": "view",
      "type": "function"
    },
    {
      "inputs": [
        {
          "internalType": "uint256",
          "name": "duelId",
          "type": "uint256"
        },
        {
          "internalType": "address",
          "name": "winner",
          "type": "address"
        }
      ],
      "name": "concludeDuel",
      "outputs": [],
      "stateMutability": "nonpayable",
      "type": "function"
    },
    {
      "inputs": [
        {
          "internalType": "address",
          "name": "player2",
          "type": "address"
        },
        {
          "internalType": "address",
          "name": "tokenAddress",
          "type": "address"
        },
        {
          "internalType": "uint256",
          "name": "wager",
          "type": "uint256"
        }
      ],
      "name": "createDuel",
      "outputs": [
        {
          "internalType": "uint256",
          "name": "",
          "type": "uint256"
        }
      ],
      "stateMutability": "nonpayable",
      "type": "function"
    },
    {
      "inputs": [
        {
          "internalType": "uint256",
          "name": "duelId",
          "type": "uint256"
        }
      ],
      "name": "getDuel",
      "outputs": [
        {
          "components": [
            {
              "internalType": "address[2]",
              "name": "players",
              "type": "address[2]"
            },
            {
              "internalType": "contract IERC20",
              "name": "token",
              "type": "address"
            },
            {
              "internalType": "uint256",
              "name": "wager",
              "type": "uint256"
            },
            {
              "internalType": "address",
              "name": "winner",
              "type": "address"
            },
            {
              "internalType": "enum Arena.DuelState",
              "name": "state",
              "type": "uint8"
            },
            {
              "internalType": "uint256",
              "name": "createdAt",
              "type": "uint256"
            },
            {
              "internalType": "uint256",
              "name": "concludedAt",
              "type": "uint256"
            }
          ],
          "internalType": "struct Arena.Duel",
          "name": "",
          "type": "tuple"
        }
      ],
      "stateMutability": "view",
      "type": "function"
    }
  ],
  "bytecode": "0x6080604052348015600e575f5ffd5b50604051610f12380380610f12833981016040819052602b916053565b60015f81905580546001600160a01b0319166001600160a01b0392909216919091179055607e565b5f602082840312156062575f5ffd5b81516001600160a01b03811681146077575f5ffd5b9392505050565b610e878061008b5f395ff3fe608060405234801561000f575f5ffd5b5060043610610054575f3560e01c8062ee62f614610058578063565e614f1461008857806371a993d4146100a8578063bf96fb89146100c9578063c874b1c2146100de575b5f5ffd5b60015461006b906001600160a01b031681565b6040516001600160a01b0390911681526020015b60405180910390f35b61009b610096366004610c48565b6100f1565b60405161007f9190610c93565b6100bb6100b6366004610d4b565b6101c5565b60405190815260200161007f565b6100dc6100d7366004610d85565b610571565b005b6100dc6100ec366004610c48565b610882565b6100f9610b7c565b5f828152600260208190526040918290208251610120810193849052929091839160e0830191849182845b81546001600160a01b031681526001909101906020018083116101245750505091835250506002828101546001600160a01b0390811660208401526003840154604084015260048401549081166060840152608090920191600160a01b900460ff169081111561019657610196610c5f565b60028111156101a7576101a7610c5f565b81526005820154602082015260069091015460409091015292915050565b5f6101ce610b54565b336001600160a01b038516036102225760405162461bcd60e51b815260206004820152601460248201527321b0b73737ba10323ab2b6103cb7bab939b2b63360611b60448201526064015b60405180910390fd5b6040516370a0823160e01b8152336004820152839083906001600160a01b038316906370a0823190602401602060405180830381865afa158015610268573d5f5f3e3d5ffd5b505050506040513d601f19601f8201168201806040525081019061028c9190610daf565b10156102d15760405162461bcd60e51b8152602060048201526014602482015273496e73756666696369656e742062616c616e636560601b6044820152606401610219565b604051636eb1769f60e11b815233600482015230602482015283906001600160a01b0383169063dd62ed3e90604401602060405180830381865afa15801561031b573d5f5f3e3d5ffd5b505050506040513d601f19601f8201168201806040525081019061033f9190610daf565b10156103865760405162461bcd60e51b8152602060048201526016602482015275496e73756666696369656e7420616c6c6f77616e636560501b6044820152606401610219565b6040516323b872dd60e01b8152336004820152306024820152604481018490526001600160a01b038216906323b872dd906064016020604051808303815f875af11580156103d6573d5f5f3e3d5ffd5b505050506040513d601f19601f820116820180604052508101906103fa9190610dc6565b50600380545f918261040b83610df9565b9091555060408051610120810182523360e082019081526001600160a01b038a811661010084015290825285166020808301919091528183018890525f60608301819052608083018190524260a084015260c0830181905284815260029182905292909220815193945090929091610484918391610bbe565b506020820151600282810180546001600160a01b03199081166001600160a01b0394851617909155604085015160038501556060850151600485018054928316919094169081178455608086015193926001600160a81b03199092161790600160a01b9084908111156104f9576104f9610c5f565b021790555060a0820151600582015560c090910151600690910155604080516001600160a01b03878116825260208201879052881691339184917f6964df9c1c8eacd1352c6d35052d335553e78155edc1b5341cee5566e63d39f8910160405180910390a491505061056a60015f55565b9392505050565b610579610b54565b60015460405163ab15ce8360e01b81526001600160a01b039091169063ab15ce83906105b290309063bf96fb8960e01b90600401610e11565b602060405180830381865afa1580156105cd573d5f5f3e3d5ffd5b505050506040513d601f19601f820116820180604052508101906105f19190610dc6565b61064c5760405162461bcd60e51b815260206004820152602660248201527f4265686176696f72436f6e74726f6c6c65723a20416374696f6e206e6f7420616044820152651b1b1bddd95960d21b6064820152608401610219565b600154604051636e878c1560e01b81526001600160a01b0390911690636e878c159061068590309063bf96fb8960e01b90600401610e11565b5f604051808303815f87803b15801561069c575f5ffd5b505af11580156106ae573d5f5f3e3d5ffd5b5050505f838152600260205260409020905060016004820154600160a01b900460ff1660028111156106e2576106e2610c5f565b146107215760405162461bcd60e51b815260206004820152600f60248201526e4475656c206e6f742061637469766560881b6044820152606401610219565b80546001600160a01b038381169116148061074b575080600101546001600160a01b038381169116145b6107885760405162461bcd60e51b815260206004820152600e60248201526d24b73b30b634b2103bb4b73732b960911b6044820152606401610219565b600481018054600160a11b6001600160a81b03199091166001600160a01b0385161717905542600682015560038101545f906107c5906002610e34565b600283015460405163a9059cbb60e01b81526001600160a01b0386811660048301526024820184905292935091169063a9059cbb906044016020604051808303815f875af1158015610819573d5f5f3e3d5ffd5b505050506040513d601f19601f8201168201806040525081019061083d9190610dc6565b506040516001600160a01b0384169085907fbc6aa23964b30a1cbe6d4de574215a49fdac2567c6c12c600e1e39cb66050c48905f90a3505061087e60015f55565b5050565b61088a610b54565b5f818152600260205260408120906004820154600160a01b900460ff1660028111156108b8576108b8610c5f565b146108f85760405162461bcd60e51b815260206004820152601060248201526f4475656c206e6f742070656e64696e6760801b6044820152606401610219565b80600101546001600160a01b031633146109445760405162461bcd60e51b815260206004820152600d60248201526c139bdd081e5bdd5c88191d595b609a1b6044820152606401610219565b600381015460028201546040516370a0823160e01b81523360048201526001600160a01b03909116906370a0823190602401602060405180830381865afa158015610991573d5f5f3e3d5ffd5b505050506040513d601f19601f820116820180604052508101906109b59190610daf565b10156109fa5760405162461bcd60e51b8152602060048201526014602482015273496e73756666696369656e742062616c616e636560601b6044820152606401610219565b60038101546002820154604051636eb1769f60e11b81523360048201523060248201526001600160a01b039091169063dd62ed3e90604401602060405180830381865afa158015610a4d573d5f5f3e3d5ffd5b505050506040513d601f19601f82011682018060405250810190610a719190610daf565b1015610ab85760405162461bcd60e51b8152602060048201526016602482015275496e73756666696369656e7420616c6c6f77616e636560501b6044820152606401610219565b600281015460038201546040516323b872dd60e01b815233600482015230602482015260448101919091526001600160a01b03909116906323b872dd906064016020604051808303815f875af1158015610b14573d5f5f3e3d5ffd5b505050506040513d601f19601f82011682018060405250810190610b389190610dc6565b50600401805460ff60a01b1916600160a01b1790555060015f55565b60025f5403610b7657604051633ee5aeb560e01b815260040160405180910390fd5b60025f55565b6040518060e00160405280610b8f610c16565b81525f6020820181905260408201819052606082018190526080820181905260a0820181905260c09091015290565b8260028101928215610c06579160200282015b82811115610c0657825182546001600160a01b0319166001600160a01b03909116178255602090920191600190910190610bd1565b50610c12929150610c34565b5090565b60405180604001604052806002906020820280368337509192915050565b5b80821115610c12575f8155600101610c35565b5f60208284031215610c58575f5ffd5b5035919050565b634e487b7160e01b5f52602160045260245ffd5b60038110610c8f57634e487b7160e01b5f52602160045260245ffd5b9052565b8151610100820190825f5b6002811015610cc65782516001600160a01b0316825260209283019290910190600101610c9e565b50505060208301516001600160a01b038116604084015250604083015160608301526060830151610d0260808401826001600160a01b03169052565b506080830151610d1560a0840182610c73565b5060a083015160c083015260c083015160e083015292915050565b80356001600160a01b0381168114610d46575f5ffd5b919050565b5f5f5f60608486031215610d5d575f5ffd5b610d6684610d30565b9250610d7460208501610d30565b929592945050506040919091013590565b5f5f60408385031215610d96575f5ffd5b82359150610da660208401610d30565b90509250929050565b5f60208284031215610dbf575f5ffd5b5051919050565b5f60208284031215610dd6575f5ffd5b8151801515811461056a575f5ffd5b634e487b7160e01b5f52601160045260245ffd5b5f60018201610e0a57610e0a610de5565b5060010190565b6001600160a01b039290921682526001600160e01b031916602082015260400190565b8082028115828204841417610e4b57610e4b610de5565b9291505056fea2646970667358221220122de9aa1141d8d2def25a933b90a7d86ff43564eca928f070b2443d3bb1205364736f6c634300081c0033",
  "linkReferences": {},
  "deployedLinkReferences": {},
  "immutableReferences": {},
  "inputSourceName": "project/contracts/Arena.sol",
  "buildInfoId": "solc-0_8_28-31f25650cdb13ee800c0a113306218d3a71cf00f"
}